{
  "contractName": "FreelanceEscrow",
  "abi": [
    {
      "anonymous": false,
      "inputs": [
        {
          "indexed": false,
          "internalType": "uint256",
          "name": "jobId",
          "type": "uint256"
        }
      ],
      "name": "DisputeOpened",
      "type": "event"
    },
    {
      "anonymous": false,
      "inputs": [
        {
          "indexed": false,
          "internalType": "uint256",
          "name": "jobId",
          "type": "uint256"
        },
        {
          "indexed": false,
          "internalType": "uint256",
          "name": "clientShare",
          "type": "uint256"
        },
        {
          "indexed": false,
          "internalType": "uint256",
          "name": "freelancerShare",
          "type": "uint256"
        }
      ],
      "name": "DisputeResolved",
      "type": "event"
    },
    {
      "anonymous": false,
      "inputs": [
        {
          "indexed": false,
          "internalType": "uint256",
          "name": "jobId",
          "type": "uint256"
        },
        {
          "indexed": false,
          "internalType": "address",
          "name": "freelancer",
          "type": "address"
        }
      ],
      "name": "JobAccepted",
      "type": "event"
    },
    {
      "anonymous": false,
      "inputs": [
        {
          "indexed": false,
          "internalType": "uint256",
          "name": "jobId",
          "type": "uint256"
        }
      ],
      "name": "JobCancelled",
      "type": "event"
    },
    {
      "anonymous": false,
      "inputs": [
        {
          "indexed": false,
          "internalType": "uint256",
          "name": "jobId",
          "type": "uint256"
        }
      ],
      "name": "JobCompleted",
      "type": "event"
    },
    {
      "anonymous": false,
      "inputs": [
        {
          "indexed": false,
          "internalType": "uint256",
          "name": "jobId",
          "type": "uint256"
        },
        {
          "indexed": false,
          "internalType": "address",
          "name": "client",
          "type": "address"
        },
        {
          "indexed": false,
          "internalType": "uint256",
          "name": "amount",
          "type": "uint256"
        }
      ],
      "name": "JobCreated",
      "type": "event"
    },
    {
      "anonymous": false,
      "inputs": [
        {
          "indexed": false,
          "internalType": "uint256",
          "name": "jobId",
          "type": "uint256"
        }
      ],
      "name": "WorkSubmitted",
      "type": "event"
    },
    {
      "inputs": [
        {
          "internalType": "uint256",
          "name": "",
          "type": "uint256"
        }
      ],
      "name": "jobs",
      "outputs": [
        {
          "internalType": "address",
          "name": "client",
          "type": "address"
        },
        {
          "internalType": "address",
          "name": "freelancer",
          "type": "address"
        },
        {
          "internalType": "address",
          "name": "arbitrator",
          "type": "address"
        },
        {
          "internalType": "uint256",
          "name": "amount",
          "type": "uint256"
        },
        {
          "internalType": "enum FreelanceEscrow.JobStatus",
          "name": "status",
          "type": "uint8"
        }
      ],
      "stateMutability": "view",
      "type": "function",
      "constant": true
    },
    {
      "inputs": [],
      "name": "nextJobId",
      "outputs": [
        {
          "internalType": "uint256",
          "name": "",
          "type": "uint256"
        }
      ],
      "stateMutability": "view",
      "type": "function",
      "constant": true
    },
    {
      "inputs": [
        {
          "internalType": "address",
          "name": "_freelancer",
          "type": "address"
        },
        {
          "internalType": "address",
          "name": "_arbitrator",
          "type": "address"
        }
      ],
      "name": "createJob",
      "outputs": [
        {
          "internalType": "uint256",
          "name": "jobId",
          "type": "uint256"
        }
      ],
      "stateMutability": "payable",
      "type": "function",
      "payable": true
    },
    {
      "inputs": [
        {
          "internalType": "uint256",
          "name": "jobId",
          "type": "uint256"
        }
      ],
      "name": "acceptJob",
      "outputs": [],
      "stateMutability": "nonpayable",
      "type": "function"
    },
    {
      "inputs": [
        {
          "internalType": "uint256",
          "name": "jobId",
          "type": "uint256"
        }
      ],
      "name": "submitWork",
      "outputs": [],
      "stateMutability": "nonpayable",
      "type": "function"
    },
    {
      "inputs": [
        {
          "internalType": "uint256",
          "name": "jobId",
          "type": "uint256"
        }
      ],
      "name": "approveWork",
      "outputs": [],
      "stateMutability": "nonpayable",
      "type": "function"
    },
    {
      "inputs": [
        {
          "internalType": "uint256",
          "name": "jobId",
          "type": "uint256"
        }
      ],
      "name": "openDispute",
      "outputs": [],
      "stateMutability": "nonpayable",
      "type": "function"
    },
    {
      "inputs": [
        {
          "internalType": "uint256",
          "name": "jobId",
          "type": "uint256"
        },
        {
          "internalType": "uint256",
          "name": "clientShare",
          "type": "uint256"
        },
        {
          "internalType": "uint256",
          "name": "freelancerShare",
          "type": "uint256"
        }
      ],
      "name": "resolveDispute",
      "outputs": [],
      "stateMutability": "nonpayable",
      "type": "function"
    },
    {
      "inputs": [
        {
          "internalType": "uint256",
          "name": "jobId",
          "type": "uint256"
        }
      ],
      "name": "cancelJob",
      "outputs": [],
      "stateMutability": "nonpayable",
      "type": "function"
    }
  ],
  "bytecode": "0x608060405234801561000f575f80fd5b50611d388061001d5f395ff3fe608060405260043610610085575f3560e01c80633d01e0fa116100585780633d01e0fa146101495780633fabe74f1461017157806363b2f3c914610199578063b0c2aa5e146101c1578063c4c11523146101eb57610085565b806316e34f9f14610089578063180aedf3146100b95780631dffa3dc146100f957806327d00fb014610121575b5f80fd5b6100a3600480360381019061009e91906113e2565b610213565b6040516100b09190611438565b60405180910390f35b3480156100c4575f80fd5b506100df60048036038101906100da919061147b565b610522565b6040516100f0959493929190611528565b60405180910390f35b348015610104575f80fd5b5061011f600480360381019061011a919061147b565b6105bd565b005b34801561012c575f80fd5b506101476004803603810190610142919061147b565b610833565b005b348015610154575f80fd5b5061016f600480360381019061016a919061147b565b610a22565b005b34801561017c575f80fd5b5061019760048036038101906101929190611579565b610c9a565b005b3480156101a4575f80fd5b506101bf60048036038101906101ba919061147b565b611043565b005b3480156101cc575f80fd5b506101d56111db565b6040516101e29190611438565b60405180910390f35b3480156101f6575f80fd5b50610211600480360381019061020c919061147b565b6111e0565b005b5f803411610256576040517f08c379a000000000000000000000000000000000000000000000000000000000815260040161024d90611623565b60405180910390fd5b5f73ffffffffffffffffffffffffffffffffffffffff168373ffffffffffffffffffffffffffffffffffffffff16036102c4576040517f08c379a00000000000000000000000000000000000000000000000000000000081526004016102bb9061168b565b60405180910390fd5b5f73ffffffffffffffffffffffffffffffffffffffff168273ffffffffffffffffffffffffffffffffffffffff1603610332576040517f08c379a0000000000000000000000000000000000000000000000000000000008152600401610329906116f3565b60405180910390fd5b5f808154809291906103439061173e565b9190505590506040518060a001604052803373ffffffffffffffffffffffffffffffffffffffff1681526020018473ffffffffffffffffffffffffffffffffffffffff1681526020018373ffffffffffffffffffffffffffffffffffffffff1681526020013481526020015f60058111156103c1576103c06114b5565b5b81525060015f8381526020019081526020015f205f820151815f015f6101000a81548173ffffffffffffffffffffffffffffffffffffffff021916908373ffffffffffffffffffffffffffffffffffffffff1602179055506020820151816001015f6101000a81548173ffffffffffffffffffffffffffffffffffffffff021916908373ffffffffffffffffffffffffffffffffffffffff1602179055506040820151816002015f6101000a81548173ffffffffffffffffffffffffffffffffffffffff021916908373ffffffffffffffffffffffffffffffffffffffff160217905550606082015181600301556080820151816004015f6101000a81548160ff021916908360058111156104d9576104d86114b5565b5b02179055509050507f8678ba2d99dba901dafc51009f8d402d37a5a0275752cf0e263b827aeca906f281333460405161051493929190611785565b60405180910390a192915050565b6001602052805f5260405f205f91509050805f015f9054906101000a900473ffffffffffffffffffffffffffffffffffffffff1690806001015f9054906101000a900473ffffffffffffffffffffffffffffffffffffffff1690806002015f9054906101000a900473ffffffffffffffffffffffffffffffffffffffff1690806003015490806004015f9054906101000a900460ff16905085565b8060015f8281526020019081526020015f205f015f9054906101000a900473ffffffffffffffffffffffffffffffffffffffff1673ffffffffffffffffffffffffffffffffffffffff163373ffffffffffffffffffffffffffffffffffffffff161461065e576040517f08c379a000000000000000000000000000000000000000000000000000000000815260040161065590611804565b60405180910390fd5b815f806005811115610673576106726114b5565b5b60015f8481526020019081526020015f206004015f9054906101000a900460ff1660058111156106a6576106a56114b5565b5b146106e6576040517f08c379a00000000000000000000000000000000000000000000000000000000081526004016106dd9061186c565b60405180910390fd5b5f60015f8681526020019081526020015f2090506005816004015f6101000a81548160ff02191690836005811115610721576107206114b5565b5b02179055505f815f015f9054906101000a900473ffffffffffffffffffffffffffffffffffffffff1673ffffffffffffffffffffffffffffffffffffffff168260030154604051610771906118b7565b5f6040518083038185875af1925050503d805f81146107ab576040519150601f19603f3d011682016040523d82523d5f602084013e6107b0565b606091505b50509050806107f4576040517f08c379a00000000000000000000000000000000000000000000000000000000081526004016107eb90611915565b60405180910390fd5b7f58243f872c550ad02802199ade99eb4250f6bb19e9abbf2d3de7b969c0eb5e4f866040516108239190611438565b60405180910390a1505050505050565b806002806005811115610849576108486114b5565b5b60015f8481526020019081526020015f206004015f9054906101000a900460ff16600581111561087c5761087b6114b5565b5b146108bc576040517f08c379a00000000000000000000000000000000000000000000000000000000081526004016108b39061186c565b60405180910390fd5b5f60015f8581526020019081526020015f209050805f015f9054906101000a900473ffffffffffffffffffffffffffffffffffffffff1673ffffffffffffffffffffffffffffffffffffffff163373ffffffffffffffffffffffffffffffffffffffff16148061097a5750806001015f9054906101000a900473ffffffffffffffffffffffffffffffffffffffff1673ffffffffffffffffffffffffffffffffffffffff163373ffffffffffffffffffffffffffffffffffffffff16145b6109b9576040517f08c379a00000000000000000000000000000000000000000000000000000000081526004016109b09061197d565b60405180910390fd5b6004816004015f6101000a81548160ff021916908360058111156109e0576109df6114b5565b5b02179055507fed50123fe46d12537dcaae53f33aee1c64bcc9e4f222560f3bae6c0824040dd384604051610a149190611438565b60405180910390a150505050565b8060015f8281526020019081526020015f205f015f9054906101000a900473ffffffffffffffffffffffffffffffffffffffff1673ffffffffffffffffffffffffffffffffffffffff163373ffffffffffffffffffffffffffffffffffffffff1614610ac3576040517f08c379a0000000000000000000000000000000000000000000000000000000008152600401610aba90611804565b60405180910390fd5b816002806005811115610ad957610ad86114b5565b5b60015f8481526020019081526020015f206004015f9054906101000a900460ff166005811115610b0c57610b0b6114b5565b5b14610b4c576040517f08c379a0000000000000000000000000000000000000000000000000000000008152600401610b439061186c565b60405180910390fd5b5f60015f8681526020019081526020015f2090506003816004015f6101000a81548160ff02191690836005811115610b8757610b866114b5565b5b02179055505f816001015f9054906101000a900473ffffffffffffffffffffffffffffffffffffffff1673ffffffffffffffffffffffffffffffffffffffff168260030154604051610bd8906118b7565b5f6040518083038185875af1925050503d805f8114610c12576040519150601f19603f3d011682016040523d82523d5f602084013e610c17565b606091505b5050905080610c5b576040517f08c379a0000000000000000000000000000000000000000000000000000000008152600401610c52906119e5565b60405180910390fd5b7f02244c8529cb95e213ee542e76e7776342b3dabd10203d01472bbf4441be892986604051610c8a9190611438565b60405180910390a1505050505050565b8260015f8281526020019081526020015f206002015f9054906101000a900473ffffffffffffffffffffffffffffffffffffffff1673ffffffffffffffffffffffffffffffffffffffff163373ffffffffffffffffffffffffffffffffffffffff1614610d3c576040517f08c379a0000000000000000000000000000000000000000000000000000000008152600401610d3390611a4d565b60405180910390fd5b836004806005811115610d5257610d516114b5565b5b60015f8481526020019081526020015f206004015f9054906101000a900460ff166005811115610d8557610d846114b5565b5b14610dc5576040517f08c379a0000000000000000000000000000000000000000000000000000000008152600401610dbc9061186c565b60405180910390fd5b5f60015f8881526020019081526020015f20905080600301548587610dea9190611a6b565b14610e2a576040517f08c379a0000000000000000000000000000000000000000000000000000000008152600401610e2190611ae8565b60405180910390fd5b6003816004015f6101000a81548160ff02191690836005811115610e5157610e506114b5565b5b02179055505f861115610f2a575f815f015f9054906101000a900473ffffffffffffffffffffffffffffffffffffffff1673ffffffffffffffffffffffffffffffffffffffff1687604051610ea5906118b7565b5f6040518083038185875af1925050503d805f8114610edf576040519150601f19603f3d011682016040523d82523d5f602084013e610ee4565b606091505b5050905080610f28576040517f08c379a0000000000000000000000000000000000000000000000000000000008152600401610f1f90611b50565b60405180910390fd5b505b5f851115610fff575f816001015f9054906101000a900473ffffffffffffffffffffffffffffffffffffffff1673ffffffffffffffffffffffffffffffffffffffff1686604051610f7a906118b7565b5f6040518083038185875af1925050503d805f8114610fb4576040519150601f19603f3d011682016040523d82523d5f602084013e610fb9565b606091505b5050905080610ffd576040517f08c379a0000000000000000000000000000000000000000000000000000000008152600401610ff490611bb8565b60405180910390fd5b505b7f959dc01840aa516bf9407cffa45326c7b6821c48feff7b91eb0c743c8f460fd687878760405161103293929190611bd6565b60405180910390a150505050505050565b805f806005811115611058576110576114b5565b5b60015f8481526020019081526020015f206004015f9054906101000a900460ff16600581111561108b5761108a6114b5565b5b146110cb576040517f08c379a00000000000000000000000000000000000000000000000000000000081526004016110c29061186c565b60405180910390fd5b5f60015f8581526020019081526020015f209050806001015f9054906101000a900473ffffffffffffffffffffffffffffffffffffffff1673ffffffffffffffffffffffffffffffffffffffff163373ffffffffffffffffffffffffffffffffffffffff1614611170576040517f08c379a000000000000000000000000000000000000000000000000000000000815260040161116790611c55565b60405180910390fd5b6001816004015f6101000a81548160ff02191690836005811115611197576111966114b5565b5b02179055507f4426e4a90a9570c8f678a263b11785eaaade8b79d76d18c43d4d8e00062e4f8384336040516111cd929190611c73565b60405180910390a150505050565b5f5481565b8060015f8281526020019081526020015f206001015f9054906101000a900473ffffffffffffffffffffffffffffffffffffffff1673ffffffffffffffffffffffffffffffffffffffff163373ffffffffffffffffffffffffffffffffffffffff1614611282576040517f08c379a000000000000000000000000000000000000000000000000000000000815260040161127990611ce4565b60405180910390fd5b816001806005811115611298576112976114b5565b5b60015f8481526020019081526020015f206004015f9054906101000a900460ff1660058111156112cb576112ca6114b5565b5b1461130b576040517f08c379a00000000000000000000000000000000000000000000000000000000081526004016113029061186c565b60405180910390fd5b600260015f8681526020019081526020015f206004015f6101000a81548160ff02191690836005811115611342576113416114b5565b5b02179055507f37da35a9cc37616d182b3f359f2fff61f738f090deb49c6a76a9c84c2462ba0e846040516113769190611438565b60405180910390a150505050565b5f80fd5b5f73ffffffffffffffffffffffffffffffffffffffff82169050919050565b5f6113b182611388565b9050919050565b6113c1816113a7565b81146113cb575f80fd5b50565b5f813590506113dc816113b8565b92915050565b5f80604083850312156113f8576113f7611384565b5b5f611405858286016113ce565b9250506020611416858286016113ce565b9150509250929050565b5f819050919050565b61143281611420565b82525050565b5f60208201905061144b5f830184611429565b92915050565b61145a81611420565b8114611464575f80fd5b50565b5f8135905061147581611451565b92915050565b5f602082840312156114905761148f611384565b5b5f61149d84828501611467565b91505092915050565b6114af816113a7565b82525050565b7f4e487b71000000000000000000000000000000000000000000000000000000005f52602160045260245ffd5b600681106114f3576114f26114b5565b5b50565b5f819050611503826114e2565b919050565b5f611512826114f6565b9050919050565b61152281611508565b82525050565b5f60a08201905061153b5f8301886114a6565b61154860208301876114a6565b61155560408301866114a6565b6115626060830185611429565b61156f6080830184611519565b9695505050505050565b5f805f606084860312156115905761158f611384565b5b5f61159d86828701611467565b93505060206115ae86828701611467565b92505060406115bf86828701611467565b9150509250925092565b5f82825260208201905092915050565b7f416d6f756e74206d757374206265203e203000000000000000000000000000005f82015250565b5f61160d6012836115c9565b9150611618826115d9565b602082019050919050565b5f6020820190508181035f83015261163a81611601565b9050919050565b7f496e76616c696420667265656c616e63657200000000000000000000000000005f82015250565b5f6116756012836115c9565b915061168082611641565b602082019050919050565b5f6020820190508181035f8301526116a281611669565b9050919050565b7f496e76616c69642061726269747261746f7200000000000000000000000000005f82015250565b5f6116dd6012836115c9565b91506116e8826116a9565b602082019050919050565b5f6020820190508181035f83015261170a816116d1565b9050919050565b7f4e487b71000000000000000000000000000000000000000000000000000000005f52601160045260245ffd5b5f61174882611420565b91507fffffffffffffffffffffffffffffffffffffffffffffffffffffffffffffffff820361177a57611779611711565b5b600182019050919050565b5f6060820190506117985f830186611429565b6117a560208301856114a6565b6117b26040830184611429565b949350505050565b7f4e6f7420636c69656e74000000000000000000000000000000000000000000005f82015250565b5f6117ee600a836115c9565b91506117f9826117ba565b602082019050919050565b5f6020820190508181035f83015261181b816117e2565b9050919050565b7f57726f6e672073746174757300000000000000000000000000000000000000005f82015250565b5f611856600c836115c9565b915061186182611822565b602082019050919050565b5f6020820190508181035f8301526118838161184a565b9050919050565b5f81905092915050565b50565b5f6118a25f8361188a565b91506118ad82611894565b5f82019050919050565b5f6118c182611897565b9150819050919050565b7f526566756e64206661696c6564000000000000000000000000000000000000005f82015250565b5f6118ff600d836115c9565b915061190a826118cb565b602082019050919050565b5f6020820190508181035f83015261192c816118f3565b9050919050565b7f4f6e6c7920636c69656e74206f7220667265656c616e636572000000000000005f82015250565b5f6119676019836115c9565b915061197282611933565b602082019050919050565b5f6020820190508181035f8301526119948161195b565b9050919050565b7f5061796d656e74206661696c65640000000000000000000000000000000000005f82015250565b5f6119cf600e836115c9565b91506119da8261199b565b602082019050919050565b5f6020820190508181035f8301526119fc816119c3565b9050919050565b7f4e6f742061726269747261746f720000000000000000000000000000000000005f82015250565b5f611a37600e836115c9565b9150611a4282611a03565b602082019050919050565b5f6020820190508181035f830152611a6481611a2b565b9050919050565b5f611a7582611420565b9150611a8083611420565b9250828201905080821115611a9857611a97611711565b5b92915050565b7f536861726573206d75737420657175616c20616d6f756e7400000000000000005f82015250565b5f611ad26018836115c9565b9150611add82611a9e565b602082019050919050565b5f6020820190508181035f830152611aff81611ac6565b9050919050565b7f436c69656e74207061796d656e74206661696c656400000000000000000000005f82015250565b5f611b3a6015836115c9565b9150611b4582611b06565b602082019050919050565b5f6020820190508181035f830152611b6781611b2e565b9050919050565b7f467265656c616e636572207061796d656e74206661696c6564000000000000005f82015250565b5f611ba26019836115c9565b9150611bad82611b6e565b602082019050919050565b5f6020820190508181035f830152611bcf81611b96565b9050919050565b5f606082019050611be95f830186611429565b611bf66020830185611429565b611c036040830184611429565b949350505050565b7f4f6e6c792061737369676e656420667265656c616e63657200000000000000005f82015250565b5f611c3f6018836115c9565b9150611c4a82611c0b565b602082019050919050565b5f6020820190508181035f830152611c6c81611c33565b9050919050565b5f604082019050611c865f830185611429565b611c9360208301846114a6565b9392505050565b7f4e6f7420667265656c616e6365720000000000000000000000000000000000005f82015250565b5f611cce600e836115c9565b9150611cd982611c9a565b602082019050919050565b5f6020820190508181035f830152611cfb81611cc2565b905091905056fea26469706673582212207bbd38c7f0311803d37670292cb79b90877a8573d5cfce09828ea6c64023347c64736f6c63430008140033",
  "immutableReferences": {},
  "source": "// contracts/FreelanceEscrow.sol\r\n// SPDX-License-Identifier: MIT\r\npragma solidity ^0.8.20;\r\n\r\ncontract FreelanceEscrow {\r\n    enum JobStatus {\r\n        Created,\r\n        Accepted,\r\n        Submitted,\r\n        Completed,\r\n        Disputed,\r\n        Cancelled\r\n    }\r\n\r\n    struct Job {\r\n        address client;\r\n        address freelancer;\r\n        address arbitrator;\r\n\r\n        uint256 amount;\r\n        JobStatus status;\r\n    }\r\n\r\n    uint256 public nextJobId;\r\n    mapping(uint256 => Job) public jobs;\r\n\r\n    event JobCreated(uint256 jobId, address client, uint256 amount);\r\n    event JobAccepted(uint256 jobId, address freelancer);\r\n    event WorkSubmitted(uint256 jobId);\r\n    event JobCompleted(uint256 jobId);\r\n    event DisputeOpened(uint256 jobId);\r\n    event DisputeResolved(uint256 jobId, uint256 clientShare, uint256 freelancerShare);\r\n    event JobCancelled(uint256 jobId);\r\n\r\n    modifier onlyClient(uint256 jobId) {\r\n        require(msg.sender == jobs[jobId].client, \"Not client\");\r\n        _;\r\n    }\r\n\r\n    modifier onlyFreelancer(uint256 jobId) {\r\n        require(msg.sender == jobs[jobId].freelancer, \"Not freelancer\");\r\n        _;\r\n    }\r\n\r\n    modifier onlyArbitrator(uint256 jobId) {\r\n        require(msg.sender == jobs[jobId].arbitrator, \"Not arbitrator\");\r\n        _;\r\n    }\r\n\r\n    modifier inStatus(uint256 jobId, JobStatus status) {\r\n        require(jobs[jobId].status == status, \"Wrong status\");\r\n        _;\r\n    }\r\n\r\n    // 1. Uzsakovas sukuria darba ir inesa lesas\r\n    function createJob(address _freelancer, address _arbitrator)\r\n        external\r\n        payable\r\n        returns (uint256 jobId)\r\n    {\r\n        require(msg.value > 0, \"Amount must be > 0\");\r\n        require(_freelancer != address(0), \"Invalid freelancer\");\r\n        require(_arbitrator != address(0), \"Invalid arbitrator\");\r\n\r\n        jobId = nextJobId++;\r\n        jobs[jobId] = Job({\r\n            client: msg.sender,\r\n            freelancer: _freelancer,\r\n            arbitrator: _arbitrator,\r\n            amount: msg.value,\r\n            status: JobStatus.Created\r\n        });\r\n\r\n        emit JobCreated(jobId, msg.sender, msg.value);\r\n    }\r\n\r\n    // 2. Freelancer'is priima darba\r\n    function acceptJob(uint256 jobId)\r\n        external\r\n        inStatus(jobId, JobStatus.Created)\r\n    {\r\n        Job storage job = jobs[jobId];\r\n        require(msg.sender == job.freelancer, \"Only assigned freelancer\");\r\n\r\n        job.status = JobStatus.Accepted;\r\n        emit JobAccepted(jobId, msg.sender);\r\n    }\r\n\r\n    // 3. Freelancer'is pateikia darba\r\n    function submitWork(uint256 jobId)\r\n        external\r\n        onlyFreelancer(jobId)\r\n        inStatus(jobId, JobStatus.Accepted)\r\n    {\r\n        jobs[jobId].status = JobStatus.Submitted;\r\n        emit WorkSubmitted(jobId);\r\n    }\r\n\r\n    // 4. Uzsakovas patvirtina darba, lesos pervedamos freelancer'iui\r\n    function approveWork(uint256 jobId)\r\n        external\r\n        onlyClient(jobId)\r\n        inStatus(jobId, JobStatus.Submitted)\r\n    {\r\n        Job storage job = jobs[jobId];\r\n        job.status = JobStatus.Completed;\r\n\r\n        (bool sent, ) = payable(job.freelancer).call{value: job.amount}(\"\");\r\n        require(sent, \"Payment failed\");\r\n\r\n        emit JobCompleted(jobId);\r\n    }\r\n\r\n    // 5. Bet kuri puse gali kelti ginca po pateikimo\r\n    function openDispute(uint256 jobId)\r\n        external\r\n        inStatus(jobId, JobStatus.Submitted)\r\n    {\r\n        Job storage job = jobs[jobId];\r\n        require(\r\n            msg.sender == job.client || msg.sender == job.freelancer,\r\n            \"Only client or freelancer\"\r\n        );\r\n\r\n        job.status = JobStatus.Disputed;\r\n        emit DisputeOpened(jobId);\r\n    }\r\n\r\n    // 6. Arbitras isprendzia ginca ir paskirsto lesas\r\n    function resolveDispute(\r\n        uint256 jobId,\r\n        uint256 clientShare,\r\n        uint256 freelancerShare\r\n    ) external onlyArbitrator(jobId) inStatus(jobId, JobStatus.Disputed) {\r\n        Job storage job = jobs[jobId];\r\n        require(\r\n            clientShare + freelancerShare == job.amount,\r\n            \"Shares must equal amount\"\r\n        );\r\n\r\n        job.status = JobStatus.Completed;\r\n\r\n        if (clientShare > 0) {\r\n            (bool sentClient, ) = payable(job.client).call{value: clientShare}(\"\");\r\n            require(sentClient, \"Client payment failed\");\r\n        }\r\n\r\n        if (freelancerShare > 0) {\r\n            (bool sentFreelancer, ) = payable(job.freelancer).call{value: freelancerShare}(\"\");\r\n            require(sentFreelancer, \"Freelancer payment failed\");\r\n        }\r\n\r\n        emit DisputeResolved(jobId, clientShare, freelancerShare);\r\n    }\r\n\r\n    // ataukimas, kol darbas nepriimtas\r\n    function cancelJob(uint256 jobId)\r\n        external\r\n        onlyClient(jobId)\r\n        inStatus(jobId, JobStatus.Created)\r\n    {\r\n        Job storage job = jobs[jobId];\r\n        job.status = JobStatus.Cancelled;\r\n\r\n        (bool sent, ) = payable(job.client).call{value: job.amount}(\"\");\r\n        require(sent, \"Refund failed\");\r\n\r\n        emit JobCancelled(jobId);\r\n    }\r\n}",
  "sourcePath": "C:\\Users\\povil\\Desktop\\Block_Chain\\4_laboratorinis_block_chain\\freelance-escrow-dapp\\contracts\\FreelanceEscrow.sol",
  "compiler": {
    "name": "solc",
    "version": "0.8.20+commit.a1b79de6.Emscripten.clang"
  },
  "schemaVersion": "3.4.16",
  "updatedAt": "2025-12-16T19:33:27.272Z",
  "networkType": "ethereum",
  "devdoc": {
    "kind": "dev",
    "methods": {},
    "version": 1
  },
  "userdoc": {
    "kind": "user",
    "methods": {},
    "version": 1
  }
}